:100000000C947C000C94A4000C94A4000C94A40008
:100010000C94A4000C94A4000C94A4000C94A400D0
:100020000C94A4000C94A4000C94A4000C94A400C0
:100030000C94A4000C9488050C94A4000C94A400C7
:100040000C943E050C94A4000C940C050C94E6044E
:100050000C94A4000C94A4000C94A4000C94A40090
:100060000C94A4000C94A4004E414E494E4954599E
:10007000494E46CDCCCC3D0AD7233C17B7D1387773
:10008000CC2B329595E6241FB14F0A000020410089
:1000900000C84200401C4620BCBE4CCA1B0E5AAED3
:1000A000C59D740000000800020100000304070061
:1000B0000000000000000000000000250028002BC8
:1000C0000000000000240027002A000404040404A7
:1000D00004040402020202020203030303030301F5
:1000E00002040810204080010204081020010204CC
:1000F000081020009206730B11241FBECFEFD8E02A
:10010000DEBFCDBF23E0ACE2B2E001C01D92A23160
:10011000B207E1F712E0A0E0B1E0EEEDF3E202C0D9
:1001200005900D92AC32B107D9F710E0CBE7D0E0E3
:1001300004C02197FE010E94C50FCA37D107C9F735
:100140000E941B070C94E2110C940000E0915302F2
:10015000F09154020190F081E02D682F83E592E048
:10016000099490E0FC01E152FF4F2491FC01E5531A
:10017000FF4F8491882399F090E0880F991FFC012C
:10018000EF53FF4FA591B491FC01E954FF4F8591C6
:1001900094918FB7F894EC91E22BEC938FBF089574
:1001A000CF92DF92EF92FF920F931F93CF93DF9343
:1001B0006C017A018B01C0E0D0E0CE15DF0589F03B
:1001C000D8016D918D01D601ED91FC910190F081E6
:1001D000E02DC6010995892B11F47E0102C02196FC
:1001E000ECCFC701DF91CF911F910F91FF90EF905E
:1001F000DF90CF900895089580E090E00895FC018D
:10020000538D448D252F30E0842F90E0821B930B7B
:10021000541710F0CF96089501970895FC01918D21
:10022000828D981761F0828DDF01A80FB11D5D9658
:100230008C91928D9F5F9F73928F90E008958FEFC6
:100240009FEF0895FC01918D828D981731F0828D7A
:10025000E80FF11D858D90E008958FEF9FEF0895D1
:10026000FC01918D228D892F90E0805C9F4F821B35
:1002700091098F739927089583E592E00E943001D8
:1002800021E0892B09F420E0822F0895FC01848D60
:10029000DF01A80FB11DA35ABF4F2C91848D90E0B0
:1002A00001968F739927848FA689B7892C93A0898B
:1002B000B1898C9180648C93938D848D981306C042
:1002C0000288F389E02D80818F7D80830895EF92ED
:1002D000FF920F931F93CF93DF93EC0181E0888F00
:1002E0009B8D8C8D981305C0E889F989808185FDE7
:1002F00024C0F62E0B8D10E00F5F1F4F0F731127D8
:10030000E02E8C8DE8120CC00FB607FCFACFE889FE
:10031000F989808185FFF5CFCE010E944601F1CF9A
:100320008B8DFE01E80FF11DE35AFF4FF0820B8F1A
:10033000EA89FB898081806207C0EE89FF8960833A
:10034000E889F98980818064808381E090E0DF9191
:10035000CF911F910F91FF90EF900895CF93DF936E
:10036000EC01888D8823C9F0EA89FB89808185FDAD
:1003700005C0A889B9898C9186FD0FC00FB607FC0E
:10038000F5CF808185FFF2CFA889B9898C9185FF4F
:10039000EDCFCE010E944601E7CFDF91CF910895C6
:1003A00080E090E0892B29F00E943C0181110C949F
:1003B0000000089590E0FC01ED55FF4F3491FC01E1
:1003C000E152FF4F2491FC01E553FF4FE491EE23EE
:1003D00009F43BC0332339F1333091F038F4313034
:1003E000A9F0323001F584B58F7D12C0373091F01D
:1003F0003830A1F03430B9F4809180008F7D03C093
:10040000809180008F77809380000DC084B58F77B6
:1004100084BD09C08091B0008F7703C08091B00087
:100420008F7D8093B000F0E0EE0FFF1FE954FF4F87
:10043000A591B4918FB7F894EC91611103C0209508
:100440002E2301C02E2B2C938FBF08952FB7F89425
:1004500060912D0270912E0280912F0290913002B6
:100460002FBF08950F931F930E94260260935B0293
:1004700070935C0280935D0290935E02E091530260
:10048000F09154020284F385E02D83E592E0099512
:1004900097FF1FC00E94260200915B0210915C0230
:1004A00020915D0230915E02DC01CB01801B910B3B
:1004B000A20BB30B009157021091580220915902E0
:1004C00030915A0280179107A207B307B8F28FEF55
:1004D0009FEF1F910F910895F89410928000E1E82A
:1004E000F0E010828091370290913802909385005D
:1004F00080938400808184608083EFE6F0E08081D7
:100500008160808378940895FC01808191810C94AE
:100510006010CF93DF93FC0124813581621773074C
:1005200078F49B01C081D1816BE370E0CE01820F32
:10053000931F0E94D011009719F08C1B9D0B02C0D5
:100540008FEF9FEFDF91CF9108950E94C211611547
:10055000710579F0FB0101900020E9F73197AF01B7
:10056000461B570BDC01ED91FC910280F381E02DDD
:10057000099480E090E008958F929F92AF92BF928D
:100580000F931F93CF93DF93CDB7DEB7A1970FB62D
:10059000F894DEBF0FBECDBF19A2423008F44AE086
:1005A0008E010F5D1F4F842E912CA12CB12CA50123
:1005B00094010E94700FE62FB901CA010150110980
:1005C000EA3014F4E05D01C0E95CD801EC93232B20
:1005D000242B252B61F7B80183E592E00E94A70246
:1005E000A1960FB6F894DEBF0FBECDBFDF91CF91BD
:1005F0001F910F91BF90AF909F908F900895CF92D1
:10060000DF92EF92FF92CF93DF936C01990FEE0888
:10061000FF08F7FE17C08DE20E94A600EC016627D6
:100620007727CB016C197D098E099F094AE00E944A
:10063000BC028C0F9D1FDF91CF91FF90EF90DF9058
:10064000CF9008954AE0C701B601DF91CF91FF90A6
:10065000EF90DF90CF900C94BC021F93CF93DF9369
:1006600002978F31910568F4FC01EC5BFE4F10811D
:10067000FC01EB5DFE4FD081FC01EA5FFE4FC081C3
:1006800003C0C0E0D0E010E0612F86E00E94DA01F4
:100690006D2F87E00E94DA016C2F88E00E94DA015A
:1006A000812F90E00E94FF028D2F90E00E94FF02B8
:1006B0006C2F70E080E090E04AE00E94BC0265E7A9
:1006C00071E083E592E0DF91CF911F910C94A70236
:1006D000EC01009739F00E94A70265E771E0CE01B6
:1006E0000E94A7020E9482068F929F92AF92BF92B1
:1006F000CF92DF92EF92FF920F931F93CF93DF93EE
:10070000EC01181619061CF068E771E01DC0880F8F
:10071000991F0E94CB0F8C010097A1F0C090060397
:10072000D0900703E0910203F0910303A090080327
:10073000B090090380900403909005037C0120E0B1
:1007400030E008C06DEA71E08091000390910103F0
:100750000E9468032C153D05A4F4C9018A0D9B1D58
:10076000B4010E945C0FDC01AA0FBB1FAE0FBF1FBC
:100770008D919C91D7018D939D937D012F5F3F4F6C
:10078000E9CFCF010E94601010930303009302038E
:1007900010920903109208038091060390910703B9
:1007A00090930B0380930A03D0930503C093040333
:1007B000DF91CF911F910F91FF90EF90DF90CF903D
:1007C000BF90AF909F908F900895CF93DF93EC01EF
:1007D0002091060330910703809104039091050353
:1007E0002817390729F4C901880F991F0E9474033B
:1007F000E0910203F091030320910A0330910B036F
:10080000A9014F5F5F4F50930B0340930A03220FE0
:10081000331FE20FF31FD183C083809104039091B3
:1008200005034817590721F410920B0310920A038D
:10083000809106039091070301969093070380939C
:100840000603DF91CF9108950F931F93CF93DF930A
:10085000EC0188819981009729F02A813B81261734
:10086000370788F48B016F5F7F4F0E94F810009765
:1008700061F0998388831B830A832C813D81232B1C
:1008800011F4FC01108281E001C080E0DF91CF9182
:100890001F910F910895EF92FF920F931F93CF93A3
:1008A000DF93EC017B018A01BA010E9424042881B4
:1008B000398181110DC02115310519F0C9010E943E
:1008C0006010198218821D821C821B821A8206C047
:1008D0001D830C83B701C9010E94DB11CE01DF919A
:1008E000CF911F910F91FF90EF900895BF92CF92FB
:1008F000DF92EF92FF920F931F93CF93DF937C01D0
:100900006B01EA0189012417350720F48D2FE901D5
:10091000042F182FD70111961C921E9213961C9229
:100920001E92129715961C921E92149740E050E06A
:1009300067E771E0C7010E944B04F601848195814D
:10094000C817D907C0F58017910708F48C01D601A4
:10095000ED91FC911197E00FF11FB08010826D9125
:100960007C916C0F7D1F6115710561F0FB01019099
:100970000020E9F73197AF01461B570BC7010E94D2
:100980004B0413C0F70180819181009711F00E9400
:100990006010D70111961C921E9215961C921E9201
:1009A000149713961C921E921297D601ED91FC910A
:1009B000E00FF11FB082C701DF91CF911F910F911E
:1009C000FF90EF90DF90CF90BF9008951F920F920D
:1009D0000FB60F9211242F933F934F935F936F9312
:1009E0007F938F939F93AF93BF93EF93FF9383E591
:1009F00092E00E944601FF91EF91BF91AF919F91CC
:100A00008F917F916F915F914F913F912F910F90B7
:100A10000FBE0F901F9018951F920F920FB60F9256
:100A200011242F938F939F93EF93FF93E091630291
:100A3000F09164028081E0916902F0916A0282FD86
:100A400012C0908180916C028F5F8F7320916D0234
:100A5000821751F0E0916C02F0E0ED5AFD4F958F56
:100A600080936C0201C08081FF91EF919F918F91E3
:100A70002F910F900FBE0F901F9018951F920F92FD
:100A80000FB60F9211242F933F938F939F93AF93A1
:100A9000BF9380912D0290912E02A0912F02B091D0
:100AA000300230912C0223E0230F2D3720F40196E1
:100AB000A11DB11D05C026E8230F0296A11DB11D81
:100AC00020932C0280932D0290932E02A0932F024C
:100AD000B09330028091310290913202A0913302A2
:100AE000B09134020196A11DB11D80933102909303
:100AF0003202A0933302B0933402BF91AF919F9121
:100B00008F913F912F910F900FBE0F901F901895CE
:100B10001F920F920FB60F9211242F933F934F9372
:100B20005F936F937F938F939F93AF93BF93CF9375
:100B3000EF93FF9380913702909138029093850054
:100B40008093840080915002882309F46DC08091C5
:100B5000FF02882309F468C08091FA029091FB0299
:100B6000181619069CF01092FB021092FA0280915E
:100B7000F902882309F458C01092F90281E090E04C
:100B80000E94E50381E080933F024EC08091F9020C
:100B9000811109C0C1E0C093F90281E090E00E9498
:100BA000E503C0933F026091FE0281E068276093F5
:100BB000FE028091F2020E94DA018091FA02909185
:100BC000FB0201979093FB028093FA028091FC0252
:100BD0009091FD028130910579F46091F402709159
:100BE000F5028091F6029091F70220E030E040E0BB
:100BF0005FE30E94AF0E10C00297B1F46091F4025F
:100C00007091F5028091F6029091F70220E030E0B9
:100C100040E05FE30E94B00E6093F4027093F5022F
:100C20008093F6029093F702FF91EF91CF91BF91DD
:100C3000AF919F918F917F916F915F914F913F9174
:100C40002F910F900FBE0F901F9018953FB7F894FB
:100C50008091310290913202A0913302B09134021E
:100C600026B5A89B05C02F3F19F00196A11DB11D07
:100C70003FBFBA2FA92F982F8827820F911DA11D42
:100C8000B11DBC01CD0142E0660F771F881F991F7F
:100C90004A95D1F708958F929F92AF92BF92CF92CB
:100CA000DF92EF92FF920E9426064B015C018AEFD1
:100CB000C82ED12CE12CF12C0E942606DC01CB01A0
:100CC00088199909AA09BB09883E9340A105B10575
:100CD00058F021E0C21AD108E108F10888EE880E28
:100CE00083E0981EA11CB11CC114D104E104F104DD
:100CF00019F7FF90EF90DF90CF90BF90AF909F904B
:100D00008F9008958DE00E94B10061E08DE00E9417
:100D1000DA010E944B0660E08DE00E94DA010E9439
:100D20004B06F3CF109256021092550288EE93E0D4
:100D3000A0E0B0E08093570290935802A09359022C
:100D4000B0935A0287E691E0909354028093530245
:100D500085EC90E09093600280935F0284EC90E0D9
:100D6000909362028093610280EC90E09093640221
:100D70008093630281EC90E0909366028093650219
:100D800082EC90E0909368028093670286EC90E09A
:100D900090936A028093690210926C0210926D0225
:100DA00010926E0210926F021092050310920403CB
:100DB0001092070310920603109209031092080381
:100DC00010920B0310920A03109201031092000379
:100DD00084E090E00E94CB0F909303038093020382
:100DE000892B11F40E94820682E090E09093050323
:100DF0008093040383E090E09093F1028093F002EB
:100E000085E090E09093F3028093F2021092FF024B
:100E10001092FB021092FA021092F4021092F50264
:100E20001092F6021092F7021092F9021092F80254
:100E30001092FE020895CF93DF93CDB7DEB762978D
:100E40000FB6F894DEBF0FBECDBF789484B5826034
:100E500084BD84B5816084BD85B5826085BD85B55E
:100E6000816085BD80916E00816080936E001092DC
:100E70008100809181008260809381008091810057
:100E800081608093810080918000816080938000E8
:100E90008091B10084608093B1008091B000816046
:100EA0008093B00080917A00846080937A00809172
:100EB0007A00826080937A0080917A0081608093CA
:100EC0007A0080917A00806880937A001092C10045
:100ED000E0916302F091640282E08083E0915F021E
:100EE000F09160021082E0916102F09162028FEC59
:100EF000808310926B02E0916702F091680286E0B5
:100F00008083E0916502F091660280818061808338
:100F1000E0916502F0916602808188608083E091B3
:100F20006502F0916602808180688083E0916502AD
:100F3000F091660280818F7D80838091F0020E9413
:100F4000B1008091F2020E94B10086E00E94B100DF
:100F500087E00E94B10088E00E94B10061E08091CA
:100F6000F0020E94DA0181E090E09093FD0280930C
:100F7000FC028093FF0281E090E00E942D0380E25A
:100F800093E090933602809335021092500284EDE4
:100F900090E390934B0280934A028BEF9FEFA0E087
:100FA000B0E08093370290933802A0933902B09357
:100FB0003A020E946C020E94260270933E026093E5
:100FC0003D0283E592E00E943001892B09F408C2BA
:100FD00083E592E00E943001181619060CF061C1F9
:100FE0001E861D86188A1F861A8A198A40E050E0DC
:100FF00067E771E0CE010D960E944B040E94320219
:1010000097FD1EC08A309105D9F089831A8209891B
:101010001A890F5F1F4FB801CE010D960E9424045C
:10102000882361F32D853E8589899A89BE016F5F8A
:101030007F4F820F931F0E94DB111A8B098BDECF2B
:1010400060E070E0CE010D960E9489028C018F3F16
:101050002FEF920791F418861F821A8619861C8634
:101060001B866D857E856115710589F049895A89D0
:10107000CE0107960E944B040AC09C0140E050E05C
:10108000BE01635F7F4FCE0107960E9476048F8179
:101090009885009729F00E947D0B6B017C0103C0AD
:1010A000C12CD12C7601C114D10409F4F2C04090B6
:1010B0004402509045026090460270904702809032
:1010C0004C0290904D02A0904E02B0904F022090A2
:1010D00048023090490283E0C816D10499F095E0A7
:1010E000C916D10409F495C021E0C216D10409F053
:1010F000B8C022242394312C812C912C540124013A
:101100003501AFC00F5F1F4FB801CE010D960E9491
:1011100089025C018FEFA816B80609F4BAC09501E0
:10112000A801BE01635F7F4FCE0101960E94760445
:1011300089819A81009729F00E94790B2B013C014B
:1011400003C0412C512C3201CE0101960E94840231
:101150009FEFA91AB90AB501CE010D960E94890226
:101160008C018F3F2FEF920709F493C09C01A501DA
:10117000BE01635F7F4FCE0101960E947604898194
:101180009A81009729F00E947D0B4B015C0103C0FE
:10119000812C912C5401CE0101960E94840281E0A1
:1011A00088169104A104B10479F092E089169104A3
:1011B000A104B10421F4A2E02A2E312C08C010921F
:1011C00041021092400265C022242394312C0F5F0B
:1011D0001F4FB801CE010D960E9489028F3F2FEF5D
:1011E000920709F456C09C01A801BE01635F7F4FBE
:1011F000CE0101960E94760489819A81009729F098
:101200000E94790B4B015C0128C0812C912C540168
:1012100024C00F5F1F4FB801CE010D960E948902B6
:101220008F3F2FEF9207A9F19C01A801BE01635FD8
:101230007F4FCE0101960E94760489819A810097A2
:1012400019F00E94790B03C060E070E0CB010E94AE
:101250001C0F7093430260934202CE0101960E94DC
:10126000840240924402509245026092460270927B
:101270004702309249022092480280924C0290929A
:101280004D02A0924E02B0924F02D0925202C092F2
:101290005102CE0107960E948402CE010D960E9453
:1012A000840280915102909152028130910519F48B
:1012B000109250028FC08330910509F082C01092C5
:1012C0005002C0904C02D0904D02E0904E02F0903F
:1012D0004F0220E030E44CE155E4C701B6010E9422
:1012E000370D87FF77C020E030E040E85FE3C701BB
:1012F000B6010E94520F87FD6DC0C701B6010E9462
:10130000230F6B017C0170934B0260934A0281E0D2
:10131000809350020091480210914902609144026A
:101320007091450280914602909147022091FF0200
:10133000222311F19B01AC010E94B00E0E941C0FF0
:101340007093FB026093FA021093FD020093FC027B
:1013500091E090933F0283E090E00E94E50301302A
:10136000110529F00230110539F460E001C061E097
:101370008091F0020E94DA019601DD0C440B550BBE
:1013800064E274EF80E090E00E94920F80E090E0D1
:10139000A1E0B0E0821B930BA40BB50B8093370246
:1013A00090933802A0933902B0933A020197A109B1
:1013B000B1098E3F9F4FA105B10560F40E946C02F8
:1013C00009C0059739F480914202909143020E942E
:1013D0002D0306C081E090E090934102809340028B
:1013E00080913F02882309F446C1809106039091C1
:1013F0000703009741F467EE71E08091000390913C
:1014000001030E94680360910203709103034091FD
:101410000803509109039A012F5F3F4F309309034E
:1014200020930803440F551FFB01E40FF51F0081B3
:101430001181AC01415051095093070340930603B9
:1014400080910403909105032817390721F4109225
:101450000903109208034115510569F09C0197FF9B
:1014600002C02D5F3F4F3595279535952795241759
:1014700035070CF031C110933C0200933B0269E147
:1014800072E083E592E00E94A70280913B02909176
:101490003C020E94FF026BE172E083E592E00E9451
:1014A000A70280913B0290913C0282309105F1F0BD
:1014B0008CF4019709F0C5C08091F90290E00E9478
:1014C000FF0284E090E00E94E50382E090E00E9449
:1014D000E503B7C08330910509F4ADC0049709F066
:1014E000B0C08091FA029091FB02A9C0C090F402B2
:1014F000D090F502E090F602F090F702A701960175
:10150000C701B6010E94570F882319F06DE172E000
:1015100027C026013701E89477F82FEF3FEF4FE718
:101520005FE7C301B2010E94570F81110DC02FEF79
:101530003FEF4FE75FE7C301B2010E94370D181676
:101540001CF461E272E00CC02FEF3FEF4FE75FE465
:10155000C701B6010E94520F18163CF465E272E012
:1015600083E592E00E94A7026CC02FEF3FEF4FE7A8
:101570005FECC701B6010E94370D87FDEFCF20E079
:1015800030E0A901C701B6010E94370D87FF07C0EF
:101590008DE20E94A600F7FAF094F7F8F0942AE0A2
:1015A00037ED43EA5BE3C701B6010E94B00E2B01A1
:1015B0003C010E94230F6B017C010E943C0D9B01AA
:1015C000AC01C301B2010E94AF0E2B013C014AE005
:1015D000C701B6010E94BC028EE20E94A60020E074
:1015E00030E040E251E4C301B2010E949D0D6B0165
:1015F0007C010E94230F2B01612C712C4AE0C30156
:10160000B2010E94BC02C301B2010E943C0D9B01C9
:10161000AC01C701B6010E94AF0E20E030E040E20D
:1016200051E40E949D0D0E94230F80E090E04AE06B
:101630000E94BC0206C08091FC029091FD020E94B3
:10164000FF026BE172E083E592E00E94A70269E28B
:1016500072E083E592E00E94A70265E771E083E50E
:1016600092E00E94A7028091060390910703892BC4
:1016700011F410923F020E94260200913D02109147
:101680003E02012E000C220B330BDC01CB01801B30
:10169000910BA20BB30B85369105A105B105C8F0DE
:1016A0008091F902882379F080913F0281110BC06B
:1016B00082E090E00E94E50384E090E00E94E50370
:1016C00091E090933F020E94260270933E02609345
:1016D0003D020E94D00175CC97FD019695958795A6
:1016E0000E947403C8CE80910203909103030C946E
:1016F0006010662777270C94B90B1F93FC0199277C
:101700008827BC01E89411911032E9F3193010F0E8
:101710001E30C8F31B3251F01D3249F4689406C0E4
:101720000E94A40B610F711D811D911D1191105319
:101730001A30B0F33EF490958095709561957F4F87
:101740008F4F9F4F1F910895592F482F372F262FC6
:10175000660F771F881F991F660F771F881F991FB5
:10176000620F731F841F951F660F771F881F991FB5
:101770000895A0E0B0E0EFEBFBE00C946D0EEC01FF
:101780007B016115710519F0DB018D939C938E012E
:101790000F5F1F4F7880872D90E00E94160D892BD8
:1017A00011F0E801F4CFBDE27B1205C00F5F1F4FBF
:1017B0007980C1E008C0EBE27E1204C08E010E5FAA
:1017C0001F4F7980C0E06801F1E0CF1AD10843E0F3
:1017D00050E060E770E0C6010E941F0D892BF1F414
:1017E000680122E0C20ED11C45E050E06BE670E0DB
:1017F000C6010E941F0D892B21F4680187E0C80EE5
:10180000D11CE114F10419F0D701CD92DC92C11181
:10181000FFC060E070E080E89FE703C143E050E074
:1018200068E670E0C6010E941F0D892B51F4E11497
:10183000F10409F4F2C00E5F1F4FF701118300831A
:10184000ECC0680160E070E0CB0100E010E0F60160
:10185000D0EDD70DDA3058F52C2F2260622E2C2FC8
:101860002870C2FF05C0211128C00F5F1F4F25C07F
:10187000222311F001501109A5E0B0E09B01AC0159
:101880000E945E0E4B015C01880C991CAA1CBB1CBB
:10189000C501B4016D0F711D811D911D6839A9E944
:1018A0007A078A07A9E19A0740F0C66005C0DE3FC3
:1018B00051F4C3FD44C0C8606C2EBFEFCB1ADB0AE5
:1018C0007080C62DC4CF2D2F2F7D2531C1F54081CD
:1018D0004D3211F4C06106C04B3221F0319621E047
:1018E00030E006C03296D60111964C9122E030E0ED
:1018F000A0EDA40FAA3018F0E21BF30B20C040E0CB
:1019000050E04038BCE05B075CF49A01220F331FC3
:10191000220F331F420F531F440F551F4A0F511DF3
:101920003196DF0111972C91A0EDA20FAA3048F358
:10193000C4FF03C0519541955109040F151FC1FF04
:1019400007C0E114F10421F03197D701ED93FC9326
:101950000E943C0DC370C33019F06B017C0106C0BE
:101960006B017C01F7FAF094F7F8F09420E030E096
:10197000A901C701B6010E94370D882309F445C0AB
:1019800017FF06C0119501951109C7E8D0E002C004
:10199000CFE9D0E05E01B8E1AB1AB1084601BE2D37
:1019A000AF2D90E2E92EF12C0E151F0584F0FE01FB
:1019B0002591359145915491B4018B2F9A2F0E9416
:1019C0009D0D4B01B82FA92F0E191F09EDCF24979C
:1019D000F594E794CA15DB0539F76401EB2EFA2E6E
:1019E0008E2D880F8F2D881F8F3F49F020E030E02B
:1019F000A901C701B6010E94370D811106C082E21C
:101A000090E090930D0380930C03C701B60109C0C9
:101A100060E070E080E89FEF04C060E070E080EC80
:101A20009FE7CDB7DEB7EEE00C94890E91110C94D0
:101A30000A0E803219F089508550C8F70895FB01CD
:101A4000DC014150504088F08D9181341CF08B3581
:101A50000CF4805E659161341CF06B350CF4605EB3
:101A6000861B611171F3990B0895881BFCCF0E94AE
:101A7000790D08F481E00895E89409C097FB3EF4DD
:101A800090958095709561957F4F8F4F9F4F9923CB
:101A9000A9F0F92F96E9BB279395F6958795779549
:101AA0006795B795F111F8CFFAF4BB0F11F460FF09
:101AB0001BC06F5F7F4F8F4F9F4F16C0882311F061
:101AC00096E911C0772321F09EE8872F762F05C075
:101AD000662371F096E8862F70E060E02AF09A9510
:101AE000660F771F881FDAF7880F9695879597F905
:101AF0000895990F0008550FAA0BE0E8FEEF16169F
:101B00001706E807F907C0F012161306E407F507F1
:101B100098F0621B730B840B950B39F40A2661F065
:101B2000232B242B252B21F408950A2609F4A14008
:101B3000A6958FEF811D811D08950E94B00D0C9414
:101B4000240E0E94160E38F00E941D0E20F09523E0
:101B500011F00C940D0E0C94130E11240C94580ECD
:101B60000E94350E70F3959FC1F3950F50E0551FFD
:101B7000629FF001729FBB27F00DB11D639FAA27E2
:101B8000F00DB11DAA1F649F6627B00DA11D661F31
:101B9000829F2227B00DA11D621F739FB00DA11D52
:101BA000621F839FA00D611D221F749F3327A00D0C
:101BB000611D231F849F600D211D822F762F6A2FA8
:101BC00011249F5750409AF0F1F088234AF0EE0F0D
:101BD000FF1FBB1F661F771F881F91505040A9F73A
:101BE0009E3F510580F00C940D0E0C94580E5F3FF3
:101BF000E4F3983ED4F3869577956795B795F79576
:101C0000E7959F5FC1F7FE2B880F911D96958795ED
:101C100097F9089599278827089597F99F6780E88D
:101C200070E060E008959FEF80EC089500240A942E
:101C30001616170618060906089500240A941216A7
:101C40001306140605060895092E0394000C11F4DA
:101C5000882352F0BB0F40F4BF2B11F460FF04C087
:101C60006F5F7F4F8F4F9F4F089557FD9058440FE0
:101C7000551F59F05F3F71F04795880F97FB991FEB
:101C800061F09F3F79F087950895121613061406A8
:101C9000551FF2CF4695F1DF08C016161706180635
:101CA000991FF1CF86957105610508940895E89410
:101CB000BB2766277727CB0197F908950E94A00ECE
:101CC000A59F900DB49F900DA49F800D911D112490
:101CD00008952F923F924F925F926F927F928F92D0
:101CE0009F92AF92BF92CF92DF92EF92FF920F93AB
:101CF0001F93CF93DF93CDB7DEB7CA1BDB0B0FB6B5
:101D0000F894DEBF0FBECDBF09942A883988488871
:101D10005F846E847D848C849B84AA84B984C88407
:101D2000DF80EE80FD800C811B81AA81B981CE0FFE
:101D3000D11D0FB6F894DEBF0FBECDBFED010895E3
:101D4000A29FB001B39FC001A39F700D811D1124FC
:101D5000911DB29F700D811D1124911D0895505841
:101D6000BB27AA270E94C70E0C94240E0E94160EB1
:101D700038F00E941D0E20F039F49F3F19F426F42C
:101D80000C94130E0EF4E095E7FB0C940D0EE92F66
:101D90000E94350E58F3BA17620773078407950738
:101DA00020F079F4A6F50C94570E0EF4E0950B2E66
:101DB000BA2FA02D0B01B90190010C01CA01A0019D
:101DC0001124FF27591B99F0593F50F4503E68F1F8
:101DD0001A16F040A22F232F342F4427585FF3CF39
:101DE000469537952795A795F0405395C9F77EF40A
:101DF0001F16BA0B620B730B840BBAF09150A1F053
:101E0000FF0FBB1F661F771F881FC2F70EC0BA0FD8
:101E1000621F731F841F48F4879577956795B79560
:101E2000F7959E3F08F0B0CF9395880F08F099275B
:101E3000EE0F9795879508950E94230F6894B1112E
:101E40000C94580E08950E943D0E88F09F5798F00C
:101E5000B92F9927B751B0F0E1F0660F771F881FAF
:101E6000991F1AF0BA95C9F714C0B13091F00E94C9
:101E7000570EB1E008950C94570E672F782F8827DE
:101E8000B85F39F0B93FCCF3869577956795B395F0
:101E9000D9F73EF490958095709561957F4F8F4F5F
:101EA0009F4F08950E94790D08F48FEF08950E94C6
:101EB000790D880B990B089597FB072E16F4009463
:101EC00007D077FD09D00E94B10F07FC05D03EF482
:101ED000909581959F4F0895709561957F4F0895D6
:101EE000A1E21A2EAA1BBB1BFD010DC0AA1FBB1F1E
:101EF000EE1FFF1FA217B307E407F50720F0A21B90
:101F0000B30BE40BF50B661F771F881F991F1A94FC
:101F100069F760957095809590959B01AC01BD0126
:101F2000CF010895052E97FB1EF400940E94A90F7F
:101F300057FD07D00E94700F07FC03D04EF40C949D
:101F4000A90F50954095309521953F4F4F4F5F4FCA
:101F5000089590958095709561957F4F8F4F9F4F15
:101F60000895AA1BBB1B51E107C0AA1FBB1FA617E0
:101F7000B70710F0A61BB70B881F991F5A95A9F732
:101F800080959095BC01CD010895EE0FFF1F05903F
:101F9000F491E02D0994CF93DF938230910510F4F2
:101FA00082E090E0E0911003F091110320E030E036
:101FB000C0E0D0E0309711F14081518148175907B6
:101FC000C0F04817590761F482819381209719F076
:101FD0009B838A832BC0909311038093100326C0A8
:101FE0002115310519F04217530718F49A01BE0163
:101FF000DF01EF010280F381E02DDCCF21153105F7
:1020000009F1281B390B2430310590F412968D917B
:102010009C9113976115710521F0FB0193838283D5
:1020200004C09093110380931003FD01329644C0C5
:10203000FD01E20FF31F81939193225031092D93FB
:102040003C933AC020910E0330910F03232B41F4AF
:10205000209102013091030130930F0320930E036E
:1020600020910001309101012115310541F42DB776
:102070003EB74091040150910501241B350BE091BE
:102080000E03F0910F03E217F307A0F42E1B3F0B92
:102090002817390778F0AC014E5F5F4F24173507DA
:1020A00048F04E0F5F1F50930F0340930E03819330
:1020B000919302C0E0E0F0E0CF01DF91CF9108956D
:1020C0000F931F93CF93DF93009709F48CC0FC010B
:1020D000329713821282009110031091110301159F
:1020E000110581F420813181820F931F20910E030D
:1020F00030910F032817390779F5F0930F03E09318
:102100000E0371C0D80140E050E0AE17BF0750F495
:1021100012962D913C911397AD012115310509F1CE
:10212000D901F3CF9D01DA0133832283608171816C
:10213000860F971F8217930769F4EC012881398174
:10214000260F371F2E5F3F4F318320838A819B816B
:1021500093838283452B29F4F0931103E0931003BA
:1021600042C01396FC93EE931297ED014991599159
:102170009E01240F351FE217F30771F480819181CE
:10218000840F951F029611969C938E938281938162
:1021900013969C938E931297E0E0F0E0D80112968C
:1021A0008D919C911397009719F0F8018C01F6CF4F
:1021B0008D919C9198012E5F3F4F820F931F20912C
:1021C0000E0330910F032817390769F4309729F46B
:1021D000109211031092100302C013821282109306
:1021E0000F0300930E03DF91CF911F910F9108957C
:1021F000A0E0B0E0EEEFF0E10C946D0EEC01009782
:1022000021F4CB010E94CB0FB8C0FC01E60FF71FF1
:102210009C0122503109E217F30708F4ACC0D90140
:102220000D911C91119706171707B0F00530110595
:1022300008F49FC0C80104978617970708F499C04F
:1022400002501109061B170B019311936D937C9398
:10225000CF010E9460108DC05B01A01AB10A4C0131
:10226000800E911EA0911003B091110340E050E048
:10227000E12CF12C109709F44AC0A815B905D1F545
:102280006D907C901197630182E0C80ED11CCA1436
:10229000DB0480F1A3014A195B096A0182E0C80EE0
:1022A000D11C1296BC9012971396AC91B5E0CB1648
:1022B000D10440F0B282A38351834083D9016D934E
:1022C0007C930AC00E5F1F4FC301800F911FF9015D
:1022D00091838083EB2DFA2FE114F10431F0D701C3
:1022E0001396FC93EE93129744C0F0931103E0937E
:1022F00010033FC08D919C9111974817590708F41E
:10230000AC017D0112960D90BC91A02DB3CF8091B0
:102310000E0390910F0388159905E1F446175707AE
:10232000C8F48091000190910101009741F48DB7AC
:102330009EB74091040150910501841B950BE8174D
:10234000F907C8F4F0930F03E0930E03F9017183CA
:1023500060830FC0CB010E94CB0F7C01009759F026
:10236000A801BE010E94C711CE010E946010C701E2
:1023700004C0CE0102C080E090E0CDB7DEB7EEE051
:102380000C94890E81E090E0F8940C94E211FB012A
:10239000DC0102C001900D9241505040D8F70895E1
:1023A000FC018191861721F08823D9F79927089598
:1023B0003197CF010895FB01DC0101900D920020BF
:1023C000E1F7089510E0CBE7D0E004C0FE010E94E1
:0E23D000C50F2196CC37D107C9F7F894FFCF7F
:1023DE00000012038000000000000000000000005A
:1023EE0000000000010000000000000000000000DE
:1023FE0000000000010000010000000100000000CC
:10240E0000000000000000000000000000000000BE
:10241E0000000000010000000000010000000000AC
:10242E00000000000000000000000000000000009E
:10243E00000001000000006701D000FF00AE013077
:10244E00010E0122010D0A0051554555453A2065F0
:10245E0072726F722064756520746F20756E64657C
:10246E0073697261626C652073697A6520666F723A
:10247E002071756575652073697A652E0051554515
:10248E0055453A20696E73756666696369656E7443
:10249E00206D656D6F727920746F20696E69746935
:1024AE00616C697A652074656D706F7261727920E6
:1024BE0071756575652E0051554555453A20636118
:1024CE006E277420706F70206974656D2066726F50
:1024DE006D2071756575653A207175657565206934
:1024EE007320656D7074792E00780079006E616EC0
:0C24FE0000696E66006F7666007A0000D0
:00000001FF
