:100000000C947C000C94A4000C94A4000C94A40008
:100010000C94A4000C94A4000C94A4000C94A400D0
:100020000C94A4000C94A4000C94A4000C94A400C0
:100030000C94A4000C944D050C94A4000C94A40002
:100040000C9403050C94A4000C94D1040C94AB0400
:100050000C94A4000C94A4000C94A4000C94A40090
:100060000C94A4000C94A4004E414E494E4954599E
:10007000494E46CDCCCC3D0AD7233C17B7D1387773
:10008000CC2B329595E6241FB14F0A000020410089
:1000900000C84200401C4620BCBE4CCA1B0E5AAED3
:1000A000C59D740000000800020100000304070061
:1000B0000000000000000000000000250028002BC8
:1000C0000000000000240027002A000404040404A7
:1000D00004040402020202020203030303030301F5
:1000E00002040810204080010204081020010204CC
:1000F000081020005706D40A11241FBECFEFD8E005
:10010000DEBFCDBF22E0AEECB1E001C01D92A03B4E
:10011000B207E1F711E0A0E0B1E0E0EAF2E202C0EC
:1001200005900D92AE3CB107D9F710E0CBE7D0E0D7
:1001300004C02197FE010E94260FCA37D107C9F7D4
:100140000E94E0060C9443110C94000090E0FC0126
:10015000E152FF4F2491FC01E553FF4F8491882326
:1001600099F090E0880F991FFC01EF53FF4FA59184
:10017000B491FC01E954FF4F859194918FB7F894A5
:10018000EC91E22BEC938FBF08952FB7F8948091F8
:10019000ED019091EE01A091EF01B091F0012FBF20
:1001A0008093F9019093FA01A093FB01B093FC01B5
:1001B000E091F101F091F2010284F385E02D81EFED
:1001C00091E0099597FF26C02FB7F8948091ED0133
:1001D0009091EE01A091EF01B091F0012FBF4091FD
:1001E000F9015091FA016091FB017091FC01841BAF
:1001F000950BA60BB70B4091F5015091F60160915C
:10020000F7017091F80184179507A607B70780F2E8
:100210008FEF9FEF0895E091F101F091F2010190CD
:10022000F081E02D682F81EF91E00994CF92DF9269
:10023000EF92FF920F931F93CF93DF936C017A019C
:100240008B01C0E0D0E0CE15DF0589F0D8016D91BB
:100250008D01D601ED91FC910190F081E02DC60158
:100260000995892B11F47E0102C02196ECCFC701BC
:10027000DF91CF911F910F91FF90EF90DF90CF9082
:100280000895089580E090E00895FC01538D448D19
:10029000252F30E0842F90E0821B930B541710F031
:1002A000CF96089501970895FC01918D828D98173E
:1002B00061F0828DDF01A80FB11D5D968C91928D4A
:1002C0009F5F9F73928F90E008958FEF9FEF089547
:1002D000FC01918D828D981731F0828DE80FF11D10
:1002E000858D90E008958FEF9FEF0895FC01918D2B
:1002F000228D892F90E0805C9F4F821B91098F7324
:100300009927089581EF91E00E94760121E0892BE1
:1003100009F420E0822F0895FC01848DDF01A80FED
:10032000B11DA35ABF4F2C91848D90E001968F731D
:100330009927848FA689B7892C93A089B1898C913C
:1003400080648C93938D848D981306C00288F38902
:10035000E02D80818F7D80830895EF92FF920F932F
:100360001F93CF93DF93EC0181E0888F9B8D8C8D61
:10037000981305C0E889F989808185FD24C0F62E8F
:100380000B8D10E00F5F1F4F0F731127E02E8C8D28
:10039000E8120CC00FB607FCFACFE889F989808112
:1003A00085FFF5CFCE010E948C01F1CF8B8DFE0130
:1003B000E80FF11DE35AFF4FF0820B8FEA89FB89AA
:1003C0008081806207C0EE89FF896083E889F989AE
:1003D00080818064808381E090E0DF91CF911F91E4
:1003E0000F91FF90EF900895CF93DF93EC01888DEC
:1003F0008823C9F0EA89FB89808185FD05C0A88929
:10040000B9898C9186FD0FC00FB607FCF5CF8081AE
:1004100085FFF2CFA889B9898C9185FFEDCFCE01F8
:100420000E948C01E7CFDF91CF91089580E090E0AA
:10043000892B29F00E94820181110C9400000895FB
:1004400090E0FC01ED55FF4F3491FC01E152FF4F6C
:100450002491FC01E553FF4FE491EE2309F43BC0E6
:10046000332339F1333091F038F43130A9F03230A0
:1004700001F584B58F7D12C0373091F03830A1F08E
:100480003430B9F4809180008F7D03C0809180006A
:100490008F77809380000DC084B58F7784BD09C0AD
:1004A0008091B0008F7703C08091B0008F7D8093E2
:1004B000B000F0E0EE0FFF1FE954FF4FA591B4919B
:1004C0008FB7F894EC91611103C020952E2301C0E1
:1004D0002E2B2C938FBF0895F89410928000E1E8A2
:1004E000F0E010828091D5019091D6019093850023
:1004F00080938400808184608083EFE6F0E08081D7
:100500008160808378940895FC01808191810C94AE
:10051000C10FCF93DF93FC012481358162177307EC
:1005200078F49B01C081D1816BE370E0CE01820F32
:10053000931F0E943111009719F08C1B9D0B02C074
:100540008FEF9FEFDF91CF9108950E9423116115E6
:10055000710579F0FB0101900020E9F73197AF01B7
:10056000461B570BDC01ED91FC910280F381E02DDD
:10057000099480E090E008958F929F92AF92BF928D
:100580000F931F93CF93DF93CDB7DEB7A1970FB62D
:10059000F894DEBF0FBECDBF19A2423008F44AE086
:1005A0008E010F5D1F4F842E912CA12CB12CA50123
:1005B00094010E94D10EE62FB901CA010150110920
:1005C000EA3014F4E05D01C0E95CD801EC93232B20
:1005D000242B252B61F7B80181EF91E00E94A7023F
:1005E000A1960FB6F894DEBF0FBECDBFDF91CF91BD
:1005F0001F910F91BF90AF909F908F900895CF92D1
:10060000DF92EF92FF92CF93DF936C01990FEE0888
:10061000FF08F7FE17C08DE20E940B01EC01662770
:100620007727CB016C197D098E099F094AE00E944A
:10063000BC028C0F9D1FDF91CF91FF90EF90DF9058
:10064000CF9008954AE0C701B601DF91CF91FF90A6
:10065000EF90DF90CF900C94BC02EC01009739F042
:100660000E94A70268E171E0CE010E94A7020E94E9
:1006700047068F929F92AF92BF92CF92DF92EF92F6
:10068000FF920F931F93CF93DF93EC011816190677
:100690001CF06BE171E01DC0880F991F0E942C0FA8
:1006A0008C010097A1F0C090A402D090A502E09127
:1006B000A002F091A102A090A602B090A7028090A3
:1006C000A2029090A3027C0120E030E008C060E527
:1006D00071E080919E0290919F020E942D032C1543
:1006E0003D05A4F4C9018A0D9B1DB4010E94BD0EF5
:1006F000DC01AA0FBB1FAE0FBF1F8D919C91D701CC
:100700008D939D937D012F5F3F4FE9CFCF010E94D5
:10071000C10F1093A1020093A0021092A7021092A1
:10072000A6028091A4029091A5029093A9028093C1
:10073000A802D093A302C093A202DF91CF911F9190
:100740000F91FF90EF90DF90CF90BF90AF909F9070
:100750008F900895CF93DF93EC012091A402309104
:10076000A5028091A2029091A3022817390729F4CB
:10077000C901880F991F0E943903E091A002F091EE
:10078000A1022091A8023091A902A9014F5F5F4FF9
:100790005093A9024093A802220F331FE20FF31FC8
:1007A000D183C0838091A2029091A3024817590778
:1007B00021F41092A9021092A8028091A4029091B3
:1007C000A50201969093A5028093A402DF91CF9198
:1007D00008950F931F93CF93DF93EC018881998144
:1007E000009729F02A813B812617370788F48B016F
:1007F0006F5F7F4F0E945910009761F09983888343
:100800001B830A832C813D81232B11F4FC01108270
:1008100081E001C080E0DF91CF911F910F91089599
:10082000EF92FF920F931F93CF93DF93EC017B0125
:100830008A01BA010E94E9032881398181110DC022
:100840002115310519F0C9010E94C10F19821882C2
:100850001D821C821B821A8206C01D830C83B70175
:10086000C9010E943C11CE01DF91CF911F910F91E0
:10087000FF90EF900895BF92CF92DF92EF92FF9298
:100880000F931F93CF93DF937C016B01EA018901E2
:100890002417350720F48D2FE901042F182FD701D5
:1008A00011961C921E9213961C921E9212971596E8
:1008B0001C921E92149740E050E06AE171E0C7017B
:1008C0000E941004F60184819581C817D907C0F5EC
:1008D0008017910708F48C01D601ED91FC911197D6
:1008E000E00FF11FB08010826D917C916C0F7D1F25
:1008F0006115710561F0FB0101900020E9F7319766
:10090000AF01461B570BC7010E94100413C0F7012B
:1009100080819181009711F00E94C10FD70111963B
:100920001C921E9215961C921E92149713961C925E
:100930001E921297D601ED91FC91E00FF11FB0824B
:10094000C701DF91CF911F910F91FF90EF90DF9042
:10095000CF90BF9008951F920F920FB60F9211245F
:100960002F933F934F935F936F937F938F939F93B7
:10097000AF93BF93EF93FF9381EF91E00E948C01BF
:10098000FF91EF91BF91AF919F918F917F916F9167
:100990005F914F913F912F910F900FBE0F901F903D
:1009A00018951F920F920FB60F9211242F938F93C9
:1009B0009F93EF93FF93E0910102F09102028081F7
:1009C000E0910702F091080282FD12C090818091AF
:1009D0000A028F5F8F7320910B02821751F0E09112
:1009E0000A02F0E0EF50FE4F958F80930A0201C09B
:1009F0008081FF91EF919F918F912F910F900FBE6A
:100A00000F901F9018951F920F920FB60F921124FE
:100A10002F933F938F939F93AF93BF938091ED015B
:100A20009091EE01A091EF01B091F0013091CE01D3
:100A300023E0230F2D3720F40196A11DB11D05C021
:100A400026E8230F0296A11DB11D2093CE018093AD
:100A5000ED019093EE01A093EF01B093F00180912E
:100A6000CF019091D001A091D101B091D201019616
:100A7000A11DB11D8093CF019093D001A093D1010E
:100A8000B093D201BF91AF919F918F913F912F91E0
:100A90000F900FBE0F901F9018951F920F920FB6D8
:100AA0000F9211242F933F934F935F936F937F93F4
:100AB0008F939F93AF93BF93CF93EF93FF938091C7
:100AC000D5019091D6019093850080938400809108
:100AD000EA01882309F46DC080919D02882309F4FE
:100AE00068C08091980290919902181619069CF09E
:100AF000109299021092980280919702882309F42B
:100B000058C01092970281E090E00E94AA0381E011
:100B10008093DB014EC080919702811109C0C1E032
:100B2000C093970281E090E00E94AA03C093DB018A
:100B300060919C0281E0682760939C028091900202
:100B40000E942002809198029091990201979093BF
:100B500099028093980280919A0290919B02813031
:100B6000910579F4609192027091930280919402C0
:100B70009091950220E030E040E05FE30E94100E8B
:100B800010C00297B1F4609192027091930280912B
:100B900094029091950220E030E040E05FE30E94F3
:100BA000110E60939202709393028093940290933B
:100BB0009502FF91EF91CF91BF91AF919F918F914E
:100BC0007F916F915F914F913F912F910F900FBE49
:100BD0000F901F9018953FB7F8948091CF01909196
:100BE000D001A091D101B091D20126B5A89B05C03A
:100BF0002F3F19F00196A11DB11D3FBFBA2FA92F9C
:100C0000982F8827820F911DA11DB11DBC01CD0118
:100C100042E0660F771F881F991F4A95D1F7089504
:100C20008F929F92AF92BF92CF92DF92EF92FF92FC
:100C30000E94EB054B015C018AEFC82ED12CE12C00
:100C4000F12C0E94EB05DC01CB0188199909AA0956
:100C5000BB09883E9340A105B10558F021E0C21AB6
:100C6000D108E108F10888EE880E83E0981EA11CE7
:100C7000B11CC114D104E104F10419F7FF90EF9005
:100C8000DF90CF90BF90AF909F908F9008958DE0B0
:100C90000E94A60061E08DE00E9420020E941006E2
:100CA00060E08DE00E9420020E941006F3CF1092B7
:100CB000F4011092F30188EE93E0A0E0B0E080939D
:100CC000F5019093F601A093F701B093F8018AE043
:100CD00091E09093F2018093F10185EC90E0909384
:100CE000FE018093FD0184EC90E0909300028093DC
:100CF000FF0180EC90E0909302028093010281EC6E
:100D000090E0909304028093030282EC90E0909331
:100D100006028093050286EC90E09093080280938F
:100D2000070210920A0210920B0210920C0210920B
:100D30000D021092A3021092A2021092A50210922C
:100D4000A4021092A7021092A6021092A902109279
:100D5000A80210929F0210929E0284E090E00E94EE
:100D60002C0F9093A1028093A002892B11F40E9472
:100D7000470682E090E09093A3028093A20283E072
:100D800090E090938F0280938E0285E090E09093A4
:100D900091028093900210929D02109299021092FB
:100DA0009802109292021092930210929402109262
:100DB0009502109297021092960210929C0208954A
:100DC000CF93DF93CDB7DEB766970FB6F894DEBF4B
:100DD0000FBECDBF789484B5826084BD84B5816038
:100DE00084BD85B5826085BD85B5816085BD8091F6
:100DF0006E00816080936E0010928100809181006E
:100E00008260809381008091810081608093810065
:100E1000809180008160809380008091B100846027
:100E20008093B1008091B00081608093B000809188
:100E30007A00846080937A0080917A008260809347
:100E40007A0080917A00816080937A0080917A00A4
:100E5000806880937A001092C100E0910102F091C5
:100E6000020282E08083E091FD01F091FE01108298
:100E7000E091FF01F09100028FEC80831092090253
:100E8000E0910502F091060286E08083E091030282
:100E9000F0910402808180618083E0910302F091EF
:100EA0000402808188608083E0910302F091040253
:100EB000808180688083E0910302F0910402808148
:100EC0008F7D808380918E020E94A6008091900287
:100ED0000E94A60061E080918E020E94200281E0C3
:100EE00090E090939B0280939A0280939D0280E20F
:100EF00093E09093D4018093D3011092EA0184EDA2
:100F000090E39093E5018093E4018BEF9FEFA0E0E5
:100F1000B0E08093D5019093D601A093D701B09310
:100F2000D8010E946C0281EF91E00E947601892B2A
:100F300009F4DEC181EF91E00E94760118161906CE
:100F40000CF041C11E861D86188A1F861A8A198ACE
:100F500040E050E06AE171E0CE010D960E9410047D
:100F60000E94C50097FD1EC08A309105D9F0898383
:100F70001A8209891A890F5F1F4FB801CE010D9699
:100F80000E94E903882361F32D853E8589899A892A
:100F9000BE016F5F7F4F820F931F0E943C111A8B1F
:100FA000098BDECF60E070E0CE010D960E948902D1
:100FB0008C018F3F2FEF920791F418861F821A86BB
:100FC00019861C861B866D857E856115710589F0E5
:100FD00049895A89CE0107960E9410040AC09C01D3
:100FE00040E050E0BE01635F7F4FCE0107960E9454
:100FF0003B048F819885009729F00E94DE0A6B01DF
:101000007C0103C0C12CD12C7601C114D10409F498
:10101000D2C08090DE019090DF01A090E001B090FE
:10102000E1014091E6015091E7016091E801709182
:10103000E9016090E2017090E30181E0C816D104FB
:1010400029F093E0C916D10451F09DC06624639441
:10105000712C40E050E0BA014A015B0194C0580194
:101060002FEFA21AB20AB501CE010D960E94890295
:101070008C010F3F8FEF180709F49DC09801A5015F
:10108000BE01635F7F4FCE0101960E943B048981C0
:101090009A81009729F00E94DA0A4B015C0103C093
:1010A000812C912C5401CE0101960E9484023801BA
:1010B0009FEF691A790AB301CE010D960E94890249
:1010C0008C018F3F2FEF920709F475C09C01A3019B
:1010D000BE01635F7F4FCE0101960E943B04898170
:1010E0009A81009729F00E94DE0A2B013C0103C07F
:1010F000412C512C3201CE0101960E94840281E0E4
:10110000481651046104710479F092E049165104C3
:101110006104710421F4A2E06A2E712C08C01092BF
:10112000DD011092DC0147C066246394712C0F5FCF
:101130001F4FB801CE010D960E9489028F3F2FEFFD
:101140009207C9F19C01A801BE01635F7F4FCE01E8
:1011500001960E943B0489819A81009729F00E94A0
:10116000DA0AAB01BC0103C040E050E0BA01CE0195
:1011700001964B8B5C8B6D8B7E8B0E9484027E89EB
:101180006D895C894B898092DE019092DF01A0928B
:10119000E001B092E1017092E3016092E2014093BC
:1011A000E6015093E7016093E8017093E901D09262
:1011B000EC01C092EB01CE0107960E948402CE01A1
:1011C0000D960E9484028091EB019091EC01813098
:1011D000910519F41092EA0185C0039709F082C0C5
:1011E0001092EA01C090E601D090E701E090E8019A
:1011F000F090E90120E030E44CE155E4C701B6018C
:101200000E94980C87FF74C020E030E040E85FE364
:10121000C701B6010E94B30E87FD6AC0C701B601BF
:101220000E94840E6B017C017093E5016093E401E0
:1012300081E08093EA010091E2011091E301609165
:10124000DE017091DF018091E0019091E101209138
:101250009D02222311F19B01AC010E94110E0E94FC
:101260007D0E709399026093980210939B020093F5
:101270009A0291E09093DB0183E090E00E94AA0340
:101280000130110529F00230110539F460E001C088
:1012900061E080918E020E9420029601DD0C440BD9
:1012A000550B64E274EF80E090E00E94F30E80E062
:1012B00090E0A1E0B0E0821B930BA40BB50B8093F0
:1012C000D5019093D601A093D701B093D80101978F
:1012D000A109B1098E3F9F4FA105B10548F40E94B5
:1012E0006C0206C081E090E09093DD018093DC0108
:1012F0008091DB01882309F43DC18091A402909183
:10130000A502009741F46AE871E080919E029091F5
:101310009F020E942D036091A0027091A102209172
:10132000A6023091A702A9014F5F5F4F5093A70219
:101330004093A602220F331FFB01E20FF31F00812F
:10134000118101979093A5028093A4022091A2029B
:101350003091A3024217530721F41092A702109272
:10136000A602009769F0A90137FF02C04D5F5F4FE9
:101370005595479555954795481759070CF00CC159
:101380001093DA010093D9016CEB71E081EF91E0E9
:101390000E94A7028091D9019091DA010E94FF0278
:1013A0006EEB71E081EF91E00E94A7028091D9017C
:1013B0009091DA0182309105A1F03CF4019709F097
:1013C000BBC08091970290E0B5C08330910509F4CD
:1013D000ADC0049709F0B0C0809198029091990235
:1013E000A9C0C0909202D0909302E0909402F09035
:1013F0009502A7019601C701B6010E94B80E882385
:1014000019F060EC71E027C046015701E894B7F885
:101410002FEF3FEF4FE75FE7C501B4010E94B80E21
:1014200081110DC02FEF3FEF4FE75FE7C501B4011A
:101430000E94980C18161CF464EC71E00CC02FEF9D
:101440003FEF4FE75FE4C701B6010E94B30E1816E5
:101450003CF468EC71E081EF91E00E94A7026CC05F
:101460002FEF3FEF4FE75FECC701B6010E94980CEA
:1014700087FDEFCF20E030E0A901C701B6010E944F
:10148000980C87FF07C08DE20E940B01F7FAF094D9
:10149000F7F8F0942AE037ED43EA5BE3C701B601C1
:1014A0000E94110E4B015C010E94840E6B017C01B5
:1014B0000E949D0C9B01AC01C501B4010E94100E5D
:1014C0004B015C014AE0C701B6010E94BC028EE2FA
:1014D0000E940B0120E030E040E251E4C501B4017C
:1014E0000E94FE0C6B017C010E94840E4B01A12C1A
:1014F000B12C4AE0C501B4010E94BC02C501B4018F
:101500000E949D0C9B01AC01C701B6010E94100E08
:1015100020E030E040E251E40E94FE0C0E94840E84
:1015200080E090E04AE00E94BC0206C080919A02EE
:1015300090919B020E94FF026EEB71E081EF91E0BF
:101540000E94A7026CEC71E081EF91E00E94A7027B
:1015500068E171E081EF91E00E94A7028091A4020E
:101560009091A502892B31F41092DB011092DA01DF
:101570001092D90180919702882359F082E090E07F
:101580000E94AA0384E090E00E94AA0391E0909355
:10159000DB010E941602C7CCC90137FD0196959563
:1015A00087950E943903ECCE8091A0029091A10210
:1015B0000C94C10F662777270C941A0B1F93FC011C
:1015C00099278827BC01E89411911032E9F319306A
:1015D00010F01E30C8F31B3251F01D3249F46894EC
:1015E00006C00E94050B610F711D811D911D119197
:1015F00010531A30B0F33EF4909580957095619534
:101600007F4F8F4F9F4F1F910895592F482F372F8E
:10161000262F660F771F881F991F660F771F881F59
:10162000991F620F731F841F951F660F771F881FF6
:10163000991F0895A0E0B0E0E0E2FBE00C94CE0D2D
:10164000EC017B016115710519F0DB018D939C9311
:101650008E010F5F1F4F7880872D90E00E94770CDE
:10166000892B11F0E801F4CFBDE27B1205C00F5FBA
:101670001F4F7980C1E008C0EBE27E1204C08E01EA
:101680000E5F1F4F7980C0E06801F1E0CF1AD108EA
:1016900043E050E060E770E0C6010E94800C892BB7
:1016A000F1F4680122E0C20ED11C45E050E06BE687
:1016B00070E0C6010E94800C892B21F4680187E04C
:1016C000C80ED11CE114F10419F0D701CD92DC92BF
:1016D000C111FFC060E070E080E89FE703C143E014
:1016E00050E068E670E0C6010E94800C892B51F43E
:1016F000E114F10409F4F2C00E5F1F4FF7011183EA
:101700000083ECC0680160E070E0CB0100E010E015
:10171000F601D0EDD70DDA3058F52C2F2260622E6D
:101720002C2F2870C2FF05C0211128C00F5F1F4F4A
:1017300025C0222311F001501109A5E0B0E09B0162
:10174000AC010E94BF0D4B015C01880C991CAA1CC6
:10175000BB1CC501B4016D0F711D811D911D683940
:10176000A9E97A078A07A9E19A0740F0C66005C08F
:10177000DE3F51F4C3FD44C0C8606C2EBFEFCB1AEE
:10178000DB0A7080C62DC4CF2D2F2F7D2531C1F5EA
:1017900040814D3211F4C06106C04B3221F03196C8
:1017A00021E030E006C03296D60111964C9122E03D
:1017B00030E0A0EDA40FAA3018F0E21BF30B20C01C
:1017C00040E050E04038BCE05B075CF49A01220F37
:1017D000331F220F331F420F531F440F551F4A0F51
:1017E000511D3196DF0111972C91A0EDA20FAA3067
:1017F00048F3C4FF03C0519541955109040F151FCB
:10180000C1FF07C0E114F10421F03197D701ED9336
:10181000FC930E949D0CC370C33019F06B017C01D6
:1018200006C06B017C01F7FAF094F7F8F09420E021
:1018300030E0A901C701B6010E94980C882309F481
:1018400045C017FF06C0119501951109C7E8D0E002
:1018500002C0CFE9D0E05E01B8E1AB1AB1084601A1
:10186000BE2DAF2D90E2E92EF12C0E151F0584F050
:10187000FE012591359145915491B4018B2F9A2FFA
:101880000E94FE0C4B01B82FA92F0E191F09EDCF96
:101890002497F594E794CA15DB0539F76401EB2E1C
:1018A000FA2E8E2D880F8F2D881F8F3F49F020E054
:1018B00030E0A901C701B6010E94980C811106C051
:1018C00082E290E09093AB028093AA02C701B60136
:1018D00009C060E070E080E89FEF04C060E070E065
:1018E00080EC9FE7CDB7DEB7EEE00C94EA0D9111E6
:1018F0000C946B0D803219F089508550C8F708950B
:10190000FB01DC014150504088F08D9181341CF086
:101910008B350CF4805E659161341CF06B350CF4F2
:10192000605E861B611171F3990B0895881BFCCFD3
:101930000E94DA0C08F481E00895E89409C097FB4E
:101940003EF490958095709561957F4F8F4F9F4F96
:101950009923A9F0F92F96E9BB279395F6958795DA
:1019600077956795B795F111F8CFFAF4BB0F11F49D
:1019700060FF1BC06F5F7F4F8F4F9F4F16C0882344
:1019800011F096E911C0772321F09EE8872F762F7A
:1019900005C0662371F096E8862F70E060E02AF0BB
:1019A0009A95660F771F881FDAF7880F96958795A7
:1019B00097F90895990F0008550FAA0BE0E8FEEF7C
:1019C00016161706E807F907C0F012161306E40703
:1019D000F50798F0621B730B840B950B39F40A26FC
:1019E00061F0232B242B252B21F408950A2609F4DA
:1019F000A140A6958FEF811D811D08950E94110DB4
:101A00000C94850D0E94770D38F00E947E0D20F019
:101A1000952311F00C946E0D0C94740D11240C94FC
:101A2000B90D0E94960D70F3959FC1F3950F50E08C
:101A3000551F629FF001729FBB27F00DB11D639F80
:101A4000AA27F00DB11DAA1F649F6627B00DA11D26
:101A5000661F829F2227B00DA11D621F739FB00DCC
:101A6000A11D621F839FA00D611D221F749F33273C
:101A7000A00D611D231F849F600D211D822F762FD5
:101A80006A2F11249F5750409AF0F1F088234AF0B2
:101A9000EE0FFF1FBB1F661F771F881F915050401E
:101AA000A9F79E3F510580F00C946E0D0C94B90D72
:101AB0005F3FE4F3983ED4F3869577956795B795A5
:101AC000F795E7959F5FC1F7FE2B880F911D9695BF
:101AD000879597F9089599278827089597F99F671B
:101AE00080E870E060E008959FEF80EC08950024A6
:101AF0000A941616170618060906089500240A9473
:101B000012161306140605060895092E0394000CF8
:101B100011F4882352F0BB0F40F4BF2B11F460FF87
:101B200004C06F5F7F4F8F4F9F4F089557FD9058B0
:101B3000440F551F59F05F3F71F04795880F97FB91
:101B4000991F61F09F3F79F087950895121613064B
:101B50001406551FF2CF4695F1DF08C0161617067A
:101B60001806991FF1CF86957105610508940895AF
:101B7000E894BB2766277727CB0197F908950E9441
:101B8000010EA59F900DB49F900DA49F800D911DF7
:101B9000112408952F923F924F925F926F927F92FD
:101BA0008F929F92AF92BF92CF92DF92EF92FF926D
:101BB0000F931F93CF93DF93CDB7DEB7CA1BDB0B19
:101BC0000FB6F894DEBF0FBECDBF09942A883988BE
:101BD00048885F846E847D848C849B84AA84B984C5
:101BE000C884DF80EE80FD800C811B81AA81B981D1
:101BF000CE0FD11D0FB6F894DEBF0FBECDBFED01E5
:101C00000895A29FB001B39FC001A39F700D811DD5
:101C10001124911DB29F700D811D1124911D0895F5
:101C20005058BB27AA270E94280E0C94850D0E94AD
:101C3000770D38F00E947E0D20F039F49F3F19F4A3
:101C400026F40C94740D0EF4E095E7FB0C946E0DE5
:101C5000E92F0E94960D58F3BA176207730784079D
:101C6000950720F079F4A6F50C94B80D0EF4E095E4
:101C70000B2EBA2FA02D0B01B90190010C01CA0146
:101C8000A0011124FF27591B99F0593F50F4503EF1
:101C900068F11A16F040A22F232F342F4427585FE3
:101CA000F3CF469537952795A795F0405395C9F7FB
:101CB0007EF41F16BA0B620B730B840BBAF09150B3
:101CC000A1F0FF0FBB1F661F771F881FC2F70EC052
:101CD000BA0F621F731F841F48F487957795679525
:101CE000B795F7959E3F08F0B0CF9395880F08F011
:101CF0009927EE0F9795879508950E94840E689412
:101D0000B1110C94B90D08950E949E0D88F09F5753
:101D100098F0B92F9927B751B0F0E1F0660F771F0F
:101D2000881F991F1AF0BA95C9F714C0B13091F005
:101D30000E94B80DB1E008950C94B80D672F782F6C
:101D40008827B85F39F0B93FCCF3869577956795CA
:101D5000B395D9F73EF490958095709561957F4F36
:101D60008F4F9F4F08950E94DA0C08F48FEF08956B
:101D70000E94DA0C880B990B089597FB072E16F436
:101D8000009407D077FD09D00E94120F07FC05D000
:101D90003EF4909581959F4F0895709561957F4F82
:101DA0000895A1E21A2EAA1BBB1BFD010DC0AA1F9C
:101DB000BB1FEE1FFF1FA217B307E407F50720F0B4
:101DC000A21BB30BE40BF50B661F771F881F991F2F
:101DD0001A9469F760957095809590959B01AC0178
:101DE000BD01CF010895052E97FB1EF400940E94BB
:101DF0000A0F57FD07D00E94D10E07FC03D04EF406
:101E00000C940A0F50954095309521953F4F4F4FB8
:101E10005F4F089590958095709561957F4F8F4F96
:101E20009F4F0895AA1BBB1B51E107C0AA1FBB1FF0
:101E3000A617B70710F0A61BB70B881F991F5A9556
:101E4000A9F780959095BC01CD010895EE0FFF1F75
:101E50000590F491E02D0994CF93DF9382309105A2
:101E600010F482E090E0E091AE02F091AF0220E049
:101E700030E0C0E0D0E0309711F140815181481747
:101E80005907C0F04817590761F482819381209760
:101E900019F09B838A832BC09093AF028093AE028C
:101EA00026C02115310519F04217530718F49A017D
:101EB000BE01DF01EF010280F381E02DDCCF2115AF
:101EC000310509F1281B390B2430310590F41296A5
:101ED0008D919C9113976115710521F0FB019383FE
:101EE000828304C09093AF028093AE02FD013296CC
:101EF00044C0FD01E20FF31F8193919322503109F9
:101F00002D933C933AC02091AC023091AD02232B2B
:101F100041F420910201309103013093AD022093EE
:101F2000AC0220910001309101012115310541F4ED
:101F30002DB73EB74091040150910501241B350B8C
:101F4000E091AC02F091AD02E217F307A0F42E1B72
:101F50003F0B2817390778F0AC014E5F5F4F24170D
:101F6000350748F04E0F5F1F5093AD024093AC020F
:101F70008193919302C0E0E0F0E0CF01DF91CF9137
:101F800008950F931F93CF93DF93009709F48CC0AC
:101F9000FC013297138212820091AE021091AF02BF
:101FA0000115110581F420813181820F931F209149
:101FB000AC023091AD022817390779F5F093AD02E4
:101FC000E093AC0271C0D80140E050E0AE17BF070B
:101FD00050F412962D913C911397AD0121153105C6
:101FE00009F1D901F3CF9D01DA01338322836081A6
:101FF0007181860F971F8217930769F4EC0128817E
:102000003981260F371F2E5F3F4F318320838A810E
:102010009B8193838283452B29F4F093AF02E09355
:10202000AE0242C01396FC93EE931297ED014991D4
:1020300059919E01240F351FE217F30771F4808137
:102040009181840F951F029611969C938E938281A5
:10205000938113969C938E931297E0E0F0E0D80161
:1020600012968D919C911397009719F0F8018C01AD
:10207000F6CF8D919C9198012E5F3F4F820F931F59
:102080002091AC023091AD022817390769F43097DE
:1020900029F41092AF021092AE0202C01382128293
:1020A0001093AD020093AC02DF91CF911F910F917D
:1020B0000895A0E0B0E0EFE5F0E10C94CE0DEC0166
:1020C000009721F4CB010E942C0FB8C0FC01E60F51
:1020D000F71F9C0122503109E217F30708F4ACC046
:1020E000D9010D911C91119706171707B0F0053013
:1020F000110508F49FC0C80104978617970708F4D4
:1021000099C002501109061B170B019311936D938F
:102110007C93CF010E94C10F8DC05B01A01AB10A50
:102120004C01800E911EA091AE02B091AF0240E032
:1021300050E0E12CF12C109709F44AC0A815B9051C
:10214000D1F56D907C901197630182E0C80ED11C8F
:10215000CA14DB0480F1A3014A195B096A0182E019
:10216000C80ED11C1296BC9012971396AC91B5E094
:10217000CB16D10440F0B282A38351834083D901AE
:102180006D937C930AC00E5F1F4FC301800F911F98
:10219000F90191838083EB2DFA2FE114F10431F0E2
:1021A000D7011396FC93EE93129744C0F093AF02BD
:1021B000E093AE023FC08D919C911197481759074B
:1021C00008F4AC017D0112960D90BC91A02DB3CF07
:1021D0008091AC029091AD0288159905E1F4461703
:1021E0005707C8F48091000190910101009741F4D4
:1021F0008DB79EB74091040150910501841B950B4A
:10220000E817F907C8F4F093AD02E093AC02F901C6
:10221000718360830FC0CB010E942C0F7C0100975B
:1022200059F0A801BE010E942811CE010E94C10FE1
:10223000C70104C0CE0102C080E090E0CDB7DEB798
:10224000EEE00C94EA0D81E090E0F8940C944311D8
:10225000FB01DC0102C001900D9241505040D8F7C3
:102260000895FC018191861721F08823D9F79927D9
:1022700008953197CF010895FB01DC0101900D9283
:102280000020E1F7089510E0CBE7D0E004C0FE01A4
:102290000E94260F2196CC37D107C9F7F894FFCFBB
:1022A0000000B002800000000000AD0116014501F1
:1022B000F4017601540168010D0A00515545554558
:1022C0003A206572726F722064756520746F207594
:1022D0006E646573697261626C652073697A6520EA
:1022E000666F722071756575652073697A652E0059
:1022F00051554555453A20696E737566666963693F
:10230000656E74206D656D6F727920746F20696ED3
:10231000697469616C697A652074656D706F72614A
:1023200072792071756575652E0051554555453A90
:102330002063616E277420706F70206974656D2052
:1023400066726F6D2071756575653A20717565757A
:102350006520697320656D7074792E0078007900AE
:0E2360006E616E00696E66006F7666007A0030
:00000001FF
