:100000000C947B000C94A3000C94A3000C94A3000C
:100010000C94A3000C94A3000C94A3000C94A300D4
:100020000C94A3000C94A3000C94A3000C94A300C4
:100030000C94A3000C948B040C94A3000C94A300C8
:100040000C94E9030C94A3000C9459040C9433040D
:100050000C94A3000C94A3000C94A3000C94A30094
:100060000C94A3000C94A3004E414E494E495459A0
:10007000494E46CDCCCC3D0AD7233C17B7D1387773
:10008000CC2B329595E6241FB14F0A000020410089
:1000900000C84200401C4620BCBE4CCA1B0E5AAED3
:1000A000C59D740000000800020100000304070061
:1000B0000000000000000000000000250028002BC8
:1000C0000000000000240027002A000404040404A7
:1000D00004040402020202020203030303030301F5
:1000E00002040810204080010204081020010204CC
:1000F000081020002A0511241FBECFEFD8E0DEBF74
:10010000CDBF22E0AEE2B1E001C01D92A430B20743
:10011000E1F711E0A0E0B1E0E2E5FEE102C0059008
:100120000D92AE32B107D9F710E0CBE7D0E004C0B2
:100130002197FE010E940A0DCA37D107C9F70E9414
:100140006B050C94270F0C9400002FB7F894809146
:100150004D0190914E01A0914F01B09150012FBFE0
:100160008093590190935A01A0935B01B0935C0175
:10017000E0915101F09152010284F385E02D81E577
:1001800091E0099597FF26C02FB7F89480914D0113
:1001900090914E01A0914F01B09150012FBF40911D
:1001A000590150915A0160915B0170915C01841B6F
:1001B000950BA60BB70B40915501509156016091DC
:1001C00057017091580184179507A607B70780F269
:1001D0008FEF9FEF0895E0915101F091520101904E
:1001E000F081E02D682F81E591E0099490E0FC0119
:1001F000E152FF4F2491FC01E553FF4F8491882386
:1002000099F090E0880F991FFC01EF53FF4FA591E3
:10021000B491FC01E954FF4F859194918FB7F89404
:10022000EC91E22BEC938FBF0895CF92DF92EF9287
:10023000FF920F931F93CF93DF936C017A018B0191
:10024000C0E0D0E0CE15DF0589F0D8016D918D01B9
:10025000D601ED91FC910190F081E02DC601099548
:10026000892B11F47E0102C02196ECCFC701DF91EA
:10027000CF911F910F91FF90EF90DF90CF90089555
:10028000089580E090E00895FC01538D448D252F62
:1002900030E0842F90E0821B930B541710F0CF9620
:1002A000089501970895FC01918D828D981761F052
:1002B000828DDF01A80FB11D5D968C91928D9F5F9D
:1002C0009F73928F90E008958FEF9FEF0895FC0148
:1002D000918D828D981731F0828DE80FF11D858DFB
:1002E00090E008958FEF9FEF0895FC01918D228D8E
:1002F000892F90E0805C9F4F821B91098F73992713
:10030000089581E591E00E94750121E0892B09F4AF
:1003100020E0822F0895FC01848DDF01A80FB11D1C
:10032000A35ABF4F2C91848D90E001968F7399272B
:10033000848FA689B7892C93A089B1898C91806418
:100340008C93938D848D981306C00288F389E02DD9
:1003500080818F7D80830895EF92FF920F931F938A
:10036000CF93DF93EC0181E0888F9B8D8C8D981368
:1003700005C0E889F989808185FD24C0F62E0B8DA2
:1003800010E00F5F1F4F0F731127E02E8C8DE812C6
:100390000CC00FB607FCFACFE889F989808185FF88
:1003A000F5CFCE010E948B01F1CF8B8DFE01E80FBE
:1003B000F11DE35AFF4FF0820B8FEA89FB898081A0
:1003C000806207C0EE89FF896083E889F9898081AE
:1003D0008064808381E090E0DF91CF911F910F9145
:1003E000FF90EF900895CF93DF93EC01888D8823E1
:1003F000C9F0EA89FB89808185FD05C0A889B98992
:100400008C9186FD0FC00FB607FCF5CF808185FF6C
:10041000F2CFA889B9898C9185FFEDCFCE010E94DA
:100420008B01E7CFDF91CF91089580E090E0892B99
:1004300029F00E94810181110C940000089590E040
:10044000FC01ED55FF4F3491FC01E152FF4F249127
:10045000FC01E553FF4FE491EE2309F43BC0332345
:1004600039F1333091F038F43130A9F0323001F500
:1004700084B58F7D12C0373091F03830A1F0343020
:10048000B9F4809180008F7D03C0809180008F77C8
:10049000809380000DC084B58F7784BD09C08091A2
:1004A000B0008F7703C08091B0008F7D8093B00043
:1004B000F0E0EE0FFF1FE954FF4FA591B4918FB705
:1004C000F894EC91611103C020952E2301C02E2BCE
:1004D0002C938FBF0895F89410928000E1E8F0E02B
:1004E000108280913001909131019093850080932A
:1004F0008400808184608083EFE6F0E08081816009
:10050000808378940895CF93DF93FC012481358113
:100510006217730778F49B01C081D1816BE370E0AF
:10052000CE01820F931F0E94150F009719F08C1BAC
:100530009D0B02C08FEF9FEFDF91CF910895009741
:1005400069F0FC0101900020E9F73197AF01481BE9
:10055000590BBC0181E591E00C94150180E090E01D
:1005600008958F929F92AF92BF920F931F93CF9354
:10057000DF93CDB7DEB7A1970FB6F894DEBF0FBEFD
:10058000CDBF19A2423008F44AE08E010F5D1F4F23
:10059000842E912CA12CB12CA50194010E94C90C90
:1005A000E62FB901CA0101501109EA3014F4E05DE7
:1005B00001C0E95CD801EC93232B242B252B61F798
:1005C000C8010E949F02A1960FB6F894DEBF0FBE2D
:1005D000CDBFDF91CF911F910F91BF90AF909F90B2
:1005E0008F900895CF92DF92EF92FF92CF93DF9397
:1005F0006C01990FEE08FF08F7FE17C08DE20E940C
:10060000EB00EC0166277727CB016C197D098E0979
:100610009F094AE00E94B1028C0F9D1FDF91CF918C
:10062000FF90EF90DF90CF9008954AE0C701B601A8
:10063000DF91CF91FF90EF90DF90CF900C94B102BB
:100640000E94070FFC01808191810C94A50D0F93EE
:100650001F93CF93DF93EC0188819981009729F054
:100660002A813B812617370788F48B016F5F7F4F04
:100670000E943D0E009761F0998388831B830A8353
:100680002C813D81232B11F4FC01108281E001C0FB
:1006900080E0DF91CF911F910F910895EF92FF922B
:1006A0000F931F93CF93DF93EC017B018A01BA0173
:1006B0000E9427032881398181110DC02115310540
:1006C00019F0C9010E94A50D198218821D821C8291
:1006D0001B821A8206C01D830C83B701C9010E94C8
:1006E000200FCE01DF91CF911F910F91FF90EF90DE
:1006F0000895BF92CF92DF92EF92FF920F931F93D4
:10070000CF93DF937C016B01EA0189012417350740
:1007100020F48D2FE901042F182FD70111961C9278
:100720001E9213961C921E92129715961C921E9260
:10073000149740E050E06CE271E0C7010E944E0364
:10074000F60184819581C817D907C0F580179107F4
:1007500008F48C01D601ED91FC911197E00FF11F87
:10076000B08010826D917C916C0F7D1F61157105B9
:1007700061F0FB0101900020E9F73197AF01461BC2
:10078000570BC7010E944E0313C0F701808191816E
:10079000009711F00E94A50DD70111961C921E9290
:1007A00015961C921E92149713961C921E921297E5
:1007B000D601ED91FC91E00FF11FB082C701DF91EE
:1007C000CF911F910F91FF90EF90DF90CF90BF904E
:1007D00008951F920F920FB60F9211242F933F93FB
:1007E0008F939F93AF93BF9380914D0190914E0152
:1007F000A0914F01B091500130914C0123E0230FA3
:100800002D3720F40196A11DB11D05C026E8230F48
:100810000296A11DB11D20934C0180934D01909330
:100820004E01A0934F01B0935001809148019091E7
:100830004901A0914A01B0914B010196A11DB11D42
:100840008093480190934901A0934A01B0934B01D2
:10085000BF91AF919F918F913F912F910F900FBEBC
:100860000F901F9018951F920F920FB60F921124A0
:100870002F933F934F935F936F937F938F939F93A8
:10088000AF93BF93EF93FF9381E591E00E948B01BB
:10089000FF91EF91BF91AF919F918F917F916F9158
:1008A0005F914F913F912F910F900FBE0F901F902E
:1008B00018951F920F920FB60F9211242F938F93BA
:1008C0009F93EF93FF93E0916101F091620180812A
:1008D000E0916701F091680182FD12C090818091E2
:1008E0006A018F5F8F7320916B01821751F0E09145
:1008F0006A01F0E0EF5AFE4F958F80936A0101C0C4
:100900008081FF91EF919F918F912F910F900FBE5A
:100910000F901F9018951F920F920FB60F921124EF
:100920002F933F934F935F936F937F938F939F93F7
:10093000AF93BF93EF93FF9380913001909131017A
:10094000909385008093840080914501882309F469
:1009500070C08091FD01882309F46BC08091F8017B
:100960009091F90118161906A4F01092F90110924D
:10097000F8018091F701882309F45BC01092F70118
:1009800081E090E0909335018093340180933601AB
:1009900050C08091F70181110BC081E08093F70175
:1009A00021E030E03093350120933401809336010B
:1009B0006091FC0181E068276093FC018091F00167
:1009C0000E941F028091F8019091F9010197909384
:1009D000F9018093F8018091FA019091FB01813037
:1009E000910579F46091F2017091F3018091F40125
:1009F0009091F5012AE037ED43E25BE30E941C0C85
:100A000010C00297B1F46091F2017091F3018091EE
:100A1000F4019091F5012AE037ED43E25BE30E9497
:100A20001D0C6093F2017093F3018093F401909395
:100A3000F501FF91EF91BF91AF919F918F917F91C0
:100A40006F915F914F913F912F910F900FBE0F903B
:100A50001F901895E1E5F1E01382128288EE93E091
:100A6000A0E0B0E084839583A683B7838AE091E019
:100A70009183808385EC90E09587848784EC90E077
:100A80009787868780EC90E0918B808B81EC90E05B
:100A9000938B828B82EC90E0958B848B86EC90E03C
:100AA000978B868B118E128E138E148EEEEEF1E0E4
:100AB00083E090E09183808385E090E0938382835C
:100AC0001786138612861482158216821782118663
:100AD000108616860895CF93DF93CDB7DEB766975D
:100AE0000FB6F894DEBF0FBECDBF789484B5826098
:100AF00084BD84B5816084BD85B5826085BD85B5C2
:100B0000816085BD80916E00816080936E0010923F
:100B100081008091810082608093810080918100BA
:100B2000816080938100809180008160809380004B
:100B30008091B10084608093B1008091B0008160A9
:100B40008093B00080917A00846080937A008091D5
:100B50007A00826080937A0080917A00816080932D
:100B60007A0080917A00806880937A001092C100A8
:100B7000E0916101F091620182E08083E0915D018A
:100B8000F0915E011082E0915F01F09160018FECC5
:100B9000808310926901E0916501F091660186E021
:100BA0008083E0916301F0916401808180618083A2
:100BB000E0916301F0916401808188608083E0911D
:100BC0006301F0916401808180688083E09163011A
:100BD000F091640180818F7D80838091EE010E947D
:100BE000F6008091F0010E94F60061E08091EE0134
:100BF0000E941F0281E090E09093FB018093FA0134
:100C00008093FD0180E293E090932F0180932E0169
:100C10001092450184ED90E39093400180933F0151
:100C20008BEF9FEFA0E0B0E0809330019093310113
:100C3000A0933201B09333010E946B0281E591E0F1
:100C40000E947501892B09F4D5C181E591E00E94CC
:100C50007501181619060CF041C11E861D86188AEA
:100C60001F861A8A198A40E050E06CE271E0CE01DA
:100C70000D960E944E030E94A50097FD1EC08A306B
:100C80009105D9F089831A8209891A890F5F1F4F4C
:100C9000B801CE010D960E942703882361F32D85AC
:100CA0003E8589899A89BE016F5F7F4F820F931FAE
:100CB0000E94200F1A8B098BDECF60E070E0CE011E
:100CC0000D960E9483028C018F3F2FEF920791F4C3
:100CD00018861F821A8619861C861B866D857E855E
:100CE0006115710589F049895A89CE0107960E94DC
:100CF0004E030AC09C0140E050E0BE01635F7F4F9D
:100D0000CE0107960E9479038F819885009729F07C
:100D10000E94EA086B017C0103C0C12CD12C760132
:100D2000C114D10409F4D2C08090390190903A01E5
:100D3000A0903B01B0903C01409141015091420193
:100D4000609143017091440160903D0170903E01BB
:100D500081E0C816D10429F093E0C916D10451F0FE
:100D60009DC066246394712C40E050E0BA014A01B2
:100D70005B0194C058012FEFA21AB20AB501CE014F
:100D80000D960E9483028C010F3F8FEF180709F424
:100D90009DC09801A501BE01635F7F4FCE01019602
:100DA0000E94790389819A81009729F00E94E608C0
:100DB0004B015C0103C0812C912C5401CE010196A2
:100DC0000E94220338019FEF691A790AB301CE010C
:100DD0000D960E9483028C018F3F2FEF920709F43A
:100DE00075C09C01A301BE01635F7F4FCE010196D8
:100DF0000E94790389819A81009729F00E94EA086C
:100E00002B013C0103C0412C512C3201CE01019633
:100E10000E94220381E0481651046104710479F0B4
:100E200092E0491651046104710421F492E0692EA4
:100E3000712C08C0109238011092370147C0662407
:100E40006394712C0F5F1F4FB801CE010D960E9465
:100E500083028F3F2FEF9207C9F19C01A801BE01C9
:100E6000635F7F4FCE0101960E94790389819A8149
:100E7000009729F00E94E608AB01BC0103C040E0E6
:100E800050E0BA01CE0101964B8B5C8B6D8B7E8B53
:100E90000E9422037E896D895C894B898092390189
:100EA00090923A01A0923B01B0923C0170923E01B7
:100EB00060923D0140934101509342016093430190
:100EC00070934401D0924701C0924601CE0107962B
:100ED0000E942203CE010D960E94220380914601BA
:100EE000909147018130910519F4109245017CC021
:100EF000039709F079C081E080934501C0904101DA
:100F0000D0904201E0904301F090440120E030E4B1
:100F10004CE155E4C701B6010E94A40A87FF6AC0EC
:100F200020E030E040E85FE3C701B6010E94BF0C5B
:100F300087FD60C0C701B6010E94900C6B017C0167
:100F40007093400160933F0100913D0110913E017B
:100F50006091390170913A0180913B0190913C017F
:100F60002091FD012223D9F09B01AC010E941D0CB0
:100F70000E94890C7093F9016093F8011093FB01B2
:100F80000093FA010130110529F00230110539F4FE
:100F900060E001C061E08091EE010E941F029601B5
:100FA000DD0C440B550B64E274EF80E090E00E948E
:100FB000EB0C80E090E0A1E0B0E0821B930BA40B6F
:100FC000B50B8093300190933101A0933201B0931F
:100FD00033010197A109B1098E3F9F4FA105B105CA
:100FE00048F40E946B0206C081E090E090933801C3
:100FF0008093370180913601882309F4E4C0109270
:10100000360188E191E00E949F0280913401909125
:1010100035010E94F2028AE191E00E949F028091D4
:1010200034019091350182309105A1F03CF4019793
:1010300009F0B9C08091F70190E0B3C08330910509
:1010400009F4ABC0049709F0AEC08091F80190910B
:10105000F901A7C0C090F201D090F301E090F40133
:10106000F090F501A7019601C701B6010E94C40CDA
:10107000882319F08CE191E027C046015701E894DC
:10108000B7F82FEF3FEF4FE75FE7C501B4010E94CC
:10109000C40C81110DC02FEF3FEF4FE75FE7C50193
:1010A000B4010E94A40A18161CF480E291E00CC05E
:1010B0002FEF3FEF4FE75FE4C701B6010E94BF0C7F
:1010C00018162CF484E291E00E949F026CC02FEF6E
:1010D0003FEF4FE75FECC701B6010E94A40A87FD0E
:1010E000F1CF20E030E0A901C701B6010E94A40AB7
:1010F00087FF07C08DE20E94EB00F7FAF094F7F843
:10110000F0942AE037ED43EA5BE3C701B6010E94A1
:101110001D0C4B015C010E94900C6B017C010E9434
:10112000A90A9B01AC01C501B4010E941C0C4B0132
:101130005C014AE0C701B6010E94B1028EE20E9442
:10114000EB0020E030E040E251E4C501B4010E9430
:101150000A0B6B017C010E94900C4B01A12CB12C5D
:101160004AE0C501B4010E94B102C501B4010E9468
:10117000A90A9B01AC01C701B6010E941C0C20E02A
:1011800030E040E251E40E940A0B0E94900C80E0A3
:1011900090E04AE00E94B10206C08091FA0190916D
:1011A000FB010E94F2028AE191E00E949F0288E224
:1011B00091E00E949F028AE291E00E949F021092B9
:1011C0003501109234010E94150238CD6627772729
:1011D0000C9426091F93FC0199278827BC01E894E9
:1011E00011911032E9F3193010F01E30C8F31B32A0
:1011F00051F01D3249F4689406C00E941109610F34
:10120000711D811D911D119110531A30B0F33EF4E0
:1012100090958095709561957F4F8F4F9F4F1F914F
:101220000895592F482F372F262F660F771F881FB5
:10123000991F660F771F881F991F620F731F841FE6
:10124000951F660F771F881F991F0895A0E0B0E0D3
:10125000ECE2F9E00C94DA0BEC017B01611571050D
:1012600019F0DB018D939C938E010F5F1F4F7880E7
:10127000872D90E00E94830A892B11F0E801F4CFBA
:10128000BDE27B1205C00F5F1F4F7980C1E008C02F
:10129000EBE27E1204C08E010E5F1F4F7980C0E02A
:1012A0006801F1E0CF1AD10843E050E060E770E058
:1012B000C6010E948C0A892BF1F4680122E0C20E5B
:1012C000D11C45E050E06BE670E0C6010E948C0A3C
:1012D000892B21F4680187E0C80ED11CE114F104C8
:1012E00019F0D701CD92DC92C111FFC060E070E02F
:1012F00080E89FE703C143E050E068E670E0C60184
:101300000E948C0A892B51F4E114F10409F4F2C013
:101310000E5F1F4FF70111830083ECC0680160E08E
:1013200070E0CB0100E010E0F601D0EDD70DDA302F
:1013300058F52C2F2260622E2C2F2870C2FF05C07A
:10134000211128C00F5F1F4F25C0222311F001502B
:101350001109A5E0B0E09B01AC010E94CB0B4B0151
:101360005C01880C991CAA1CBB1CC501B4016D0F43
:10137000711D811D911D6839A9E97A078A07A9E1C4
:101380009A0740F0C66005C0DE3F51F4C3FD44C07B
:10139000C8606C2EBFEFCB1ADB0A7080C62DC4CF9D
:1013A0002D2F2F7D2531C1F540814D3211F4C061C3
:1013B00006C04B3221F0319621E030E006C0329673
:1013C000D60111964C9122E030E0A0EDA40FAA3096
:1013D00018F0E21BF30B20C040E050E04038BCE0C6
:1013E0005B075CF49A01220F331F220F331F420F59
:1013F000531F440F551F4A0F511D3196DF0111979E
:101400002C91A0EDA20FAA3048F3C4FF03C0519560
:1014100041955109040F151FC1FF07C0E114F104E4
:1014200021F03197D701ED93FC930E94A90AC37074
:10143000C33019F06B017C0106C06B017C01F7FA27
:10144000F094F7F8F09420E030E0A901C701B6016C
:101450000E94A40A882309F445C017FF06C011950D
:1014600001951109C7E8D0E002C0CFE9D0E05E01E4
:10147000B8E1AB1AB1084601BE2DAF2D90E2E92EBE
:10148000F12C0E151F0584F0FE0125913591459133
:101490005491B4018B2F9A2F0E940A0B4B01B82F45
:1014A000A92F0E191F09EDCF2497F594E794CA15BB
:1014B000DB0539F76401EB2EFA2E8E2D880F8F2D68
:1014C000881F8F3F49F020E030E0A901C701B60135
:1014D0000E94A40A811106C082E290E09093FF016D
:1014E0008093FE01C701B60109C060E070E080E8AA
:1014F0009FEF04C060E070E080EC9FE7CDB7DEB7FF
:10150000EEE00C94F60B91110C94770B803219F0ED
:1015100089508550C8F70895FB01DC0141505040C7
:1015200088F08D9181341CF08B350CF4805E6591D0
:1015300061341CF06B350CF4605E861B611171F335
:10154000990B0895881BFCCF0E94E60A08F481E0FD
:101550000895E89409C097FB3EF4909580957095A6
:1015600061957F4F8F4F9F4F9923A9F0F92F96E9EF
:10157000BB279395F695879577956795B795F11164
:10158000F8CFFAF4BB0F11F460FF1BC06F5F7F4F01
:101590008F4F9F4F16C0882311F096E911C0772313
:1015A00021F09EE8872F762F05C0662371F096E81C
:1015B000862F70E060E02AF09A95660F771F881FEB
:1015C000DAF7880F9695879597F90895990F00088F
:1015D000550FAA0BE0E8FEEF16161706E807F90705
:1015E000C0F012161306E407F50798F0621B730BA0
:1015F000840B950B39F40A2661F0232B242B252B21
:1016000021F408950A2609F4A140A6958FEF811DC3
:10161000811D08950E941D0B0C94910B0E94830B59
:1016200038F00E948A0B20F0952311F00C947A0B6D
:101630000C94800B11240C94C50B0E94A20B70F328
:10164000959FC1F3950F50E0551F629FF001729F67
:10165000BB27F00DB11D639FAA27F00DB11DAA1F76
:10166000649F6627B00DA11D661F829F2227B00DC3
:10167000A11D621F739FB00DA11D621F839FA00D4E
:10168000611D221F749F3327A00D611D231F849F9E
:10169000600D211D822F762F6A2F11249F575040F5
:1016A0009AF0F1F088234AF0EE0FFF1FBB1F661F70
:1016B000771F881F91505040A9F79E3F510580F039
:1016C0000C947A0B0C94C50B5F3FE4F3983ED4F373
:1016D000869577956795B795F795E7959F5FC1F7DD
:1016E000FE2B880F911D9695879597F90895992758
:1016F0008827089597F99F6780E870E060E0089573
:101700009FEF80EC089500240A9416161706180619
:101710000906089500240A941216130614060506F5
:101720000895092E0394000C11F4882352F0BB0F86
:1017300040F4BF2B11F460FF04C06F5F7F4F8F4FE9
:101740009F4F089557FD9058440F551F59F05F3F24
:1017500071F04795880F97FB991F61F09F3F79F0D3
:1017600087950895121613061406551FF2CF469555
:10177000F1DF08C0161617061806991FF1CF8695D7
:101780007105610508940895E894BB2766277727BB
:10179000CB0197F908950E940D0CA59F900DB49F61
:1017A000900DA49F800D911D112408952F923F92BA
:1017B0004F925F926F927F928F929F92AF92BF9261
:1017C000CF92DF92EF92FF920F931F93CF93DF930D
:1017D000CDB7DEB7CA1BDB0B0FB6F894DEBF0FBE6A
:1017E000CDBF09942A88398848885F846E847D84B7
:1017F0008C849B84AA84B984C884DF80EE80FD80B9
:101800000C811B81AA81B981CE0FD11D0FB6F8942E
:10181000DEBF0FBECDBFED010895A29FB001B39F03
:10182000C001A39F700D811D1124911DB29F700DE9
:10183000811D1124911D08955058BB27AA270E948D
:10184000340C0C94910B0E94830B38F00E948A0B8D
:1018500020F039F49F3F19F426F40C94800B0EF419
:10186000E095E7FB0C947A0BE92F0E94A20B58F34A
:10187000BA17620773078407950720F079F4A6F575
:101880000C94C40B0EF4E0950B2EBA2FA02D0B0177
:10189000B90190010C01CA01A0011124FF27591BB5
:1018A00099F0593F50F4503E68F11A16F040A22FBB
:1018B000232F342F4427585FF3CF4695379527952C
:1018C000A795F0405395C9F77EF41F16BA0B620B2B
:1018D000730B840BBAF09150A1F0FF0FBB1F661F72
:1018E000771F881FC2F70EC0BA0F621F731F841FB5
:1018F00048F4879577956795B795F7959E3F08F0DB
:10190000B0CF9395880F08F09927EE0F979587959C
:1019100008950E94900C6894B1110C94C50B089521
:101920000E94AA0B88F09F5798F0B92F9927B751BA
:10193000B0F0E1F0660F771F881F991F1AF0BA9573
:10194000C9F714C0B13091F00E94C40BB1E0089502
:101950000C94C40B672F782F8827B85F39F0B93FF4
:10196000CCF3869577956795B395D9F73EF4909526
:101970008095709561957F4F8F4F9F4F08950E947E
:10198000E60A08F48FEF08950E94E60A880B990B87
:101990000895A1E21A2EAA1BBB1BFD010DC0AA1FB0
:1019A000BB1FEE1FFF1FA217B307E407F50720F0C8
:1019B000A21BB30BE40BF50B661F771F881F991F43
:1019C0001A9469F760957095809590959B01AC018C
:1019D000BD01CF010895052E97FB1EF400940E94CF
:1019E000020D57FD07D00E94C90C07FC03D04EF42E
:1019F0000C94020D50954095309521953F4F4F4FD7
:101A00005F4F089590958095709561957F4F8F4FAA
:101A10009F4F0895EE0FFF1F0590F491E02D09945C
:101A2000CF93DF938230910510F482E090E0E09153
:101A30000202F091030220E030E0C0E0D0E03097F5
:101A400011F14081518148175907C0F048175907D3
:101A500061F482819381209719F09B838A832BC044
:101A6000909303028093020226C02115310519F0DC
:101A70004217530718F49A01BE01DF01EF010280FB
:101A8000F381E02DDCCF2115310509F1281B390B3D
:101A90002430310590F412968D919C911397611525
:101AA000710521F0FB019383828304C090930302AC
:101AB00080930202FD01329644C0FD01E20FF31F44
:101AC00081939193225031092D933C933AC02091F8
:101AD000000230910102232B41F420910201309148
:101AE0000301309301022093000220910001309104
:101AF00001012115310541F42DB73EB74091040194
:101B000050910501241B350BE0910002F091010278
:101B1000E217F307A0F42E1B3F0B2817390778F0C4
:101B2000AC014E5F5F4F2417350748F04E0F5F1F23
:101B300050930102409300028193919302C0E0E030
:101B4000F0E0CF01DF91CF9108950F931F93CF93D2
:101B5000DF93009709F48CC0FC0132971382128244
:101B600000910202109103020115110581F42081F8
:101B70003181820F931F20910002309101022817BA
:101B8000390779F5F0930102E093000271C0D801A2
:101B900040E050E0AE17BF0750F412962D913C91F3
:101BA0001397AD012115310509F1D901F3CF9D013D
:101BB000DA013383228360817181860F971F821738
:101BC000930769F4EC0128813981260F371F2E5FB6
:101BD0003F4F318320838A819B8193838283452B6E
:101BE00029F4F0930302E093020242C01396FC939F
:101BF000EE931297ED01499159919E01240F351FE3
:101C0000E217F30771F480819181840F951F02968A
:101C100011969C938E938281938113969C938E93BD
:101C20001297E0E0F0E0D80112968D919C91139705
:101C3000009719F0F8018C01F6CF8D919C919801D5
:101C40002E5F3F4F820F931F2091000230910102BF
:101C50002817390769F4309729F41092030210927B
:101C6000020202C01382128210930102009300024A
:101C7000DF91CF911F910F910895A0E0B0E0E3E4D0
:101C8000FEE00C94DA0BEC01009721F4CB010E94EA
:101C9000100DB8C0FC01E60FF71F9C01225031095E
:101CA000E217F30708F4ACC0D9010D911C9111970C
:101CB00006171707B0F00530110508F49FC0C801DA
:101CC00004978617970708F499C002501109061B5C
:101CD000170B019311936D937C93CF010E94A50D77
:101CE0008DC05B01A01AB10A4C01800E911EA0911B
:101CF0000202B091030240E050E0E12CF12C109779
:101D000009F44AC0A815B905D1F56D907C901197DA
:101D1000630182E0C80ED11CCA14DB0480F1A30168
:101D20004A195B096A0182E0C80ED11C1296BC9068
:101D300012971396AC91B5E0CB16D10440F0B28265
:101D4000A38351834083D9016D937C930AC00E5FB6
:101D50001F4FC301800F911FF90191838083EB2DE9
:101D6000FA2FE114F10431F0D7011396FC93EE93AE
:101D7000129744C0F0930302E09302023FC08D919A
:101D80009C9111974817590708F4AC017D011296F0
:101D90000D90BC91A02DB3CF8091000290910102D3
:101DA00088159905E1F446175707C8F4809100019A
:101DB00090910101009741F48DB79EB740910401C5
:101DC00050910501841B950BE817F907C8F4F093AF
:101DD0000102E0930002F901718360830FC0CB011F
:101DE0000E94100D7C01009759F0A801BE010E94CD
:101DF0000C0FCE010E94A50DC70104C0CE0102C088
:101E000080E090E0CDB7DEB7EEE00C94F60B81E019
:101E100090E0F8940C94270FFB01DC0102C00190C4
:101E20000D9241505040D8F70895FC0181918617DA
:101E300021F08823D9F7992708953197CF01089584
:101E4000FB01DC0101900D920020E1F70895F89468
:021E5000FFCFC2
:101E520000000402800000000000AC0115014401F2
:101E6200F301750153016701780079006E616E001C
:0E1E7200696E66006F7666007A000D0A000049
:00000001FF
